:041000007FEF3EF050
:107CFE0000EE0EF0080EEE6AE806FDE1000EF86EDC
:107D0E000001A6EF3EF0800E9B6E700ED36E100E2D
:107D1E00D26E900EB56E010E926E000E896E000E32
:107D2E000F015B6F000EC16E000E986E000E936E0B
:107D3E00000E8A6E000E946E000E8B6E120020EEF8
:107D4E0001F0070EDE6AE806FDE2000E0B6E000E75
:107D5E000A6E000E0C6E000E096E8AEC3EF0FF0EDF
:107D6E000A24F66E7D0E0B20F76E010E0C24D96ED2
:107D7E00DA6A000EDA220800F5CFDFFF000E0D6E74
:107D8E00010E0D24D96EDA6A000EDA22DF500926B2
:107D9E000D2A070E0D64D6EF3EF0D8EF3EF0C7EF7A
:107DAE003EF00938E8461F0B096E0A4A0B2A0BBE35
:107DBE00E8EF3EF0020E0B5CD8A0E8EF3EF0EAEFE3
:107DCE003EF0EEEF3EF0000E0B6E000E0A6E0C2A29
:107DDE00070E0C64F5EF3EF0F7EF3EF0F9EF3EF0D4
:107DEE00000E0C6E000E096EB6EF3EF000EF08F0BE
:107DFE00000800152400063800004930001715351C
:107E0E000D080024402B4D4E105300002419004D38
:107E1E003F001D004B002400130A650000663E1053
:107E2E0060685E301947691656011C001C06072D46
:107E3E002924042A0E056C2672325D774F518C3838
:107E4E00291B29357A67364151676150791F66744F
:107E5E0084519E403C819141962C906D52A666AD08
:107E6E006783749699AFAC5B639D4AB48B96578FBC
:107E7E00AF54B97B7AA573B49A93C6BF88869E76A3
:107E8E00636DA4CBA5B18A85616E85D9C2C27A9382
:107E9E00CACFA188C6A871A06B77D99EB685B673D6
:107EAE00EBD7EF97C7F0EDE2C5E0B9DE87CC9FBE0A
:107EBE0085CAFF9DB691F5ECB19DFBD6FFAD91AF96
:107ECE00C3939AD1FFC1B3F3AEB2F0AFB7FFB5BA59
:107EDE00A9B1A7FCFFF7DCBCF1FFE9FFDCFFFFE572
:107EEE00DEFFFFFBC7FFFFFFFFFFD5D8ECF1BDFFA5
:107EFE00FFD7D7EFFFC2BDCEFFFBD6FFFFFFD1C02E
:107F0E00D2FFFFFFB6E8FDCDBEFFC8EDB8FFFFE61E
:107F1E00FFE0C4D1D7F2E7B6ED9EE6F1DEB6F3A2EE
:107F2E00C4E1A5E1A1E6B9BAFFC8CFF3D3CBECCC3F
:107F3E00C9D3AF9189F8858EBDD0E294D2A2BCAFE1
:107F4E00B07DC3B999BE868D91AE89D56CDFD3DF76
:107F5E00B6D19B6867D385A093889891C5987954BC
:107F6E00A5648554A0B7A660699CB8BF894F4C958F
:107F7E006D6953A46AA03D93A4467E4789418B63E5
:107F8E006C7E973589AB3E2F7476A5555A728E69E5
:107F9E007B9A3B764A94378592914E907D646938F0
:107FAE00342A7E8186840D701312202C6B084018A3
:107FBE00042700346A2820690F56037533004919C7
:107FCE00514A63006D3E541359345E5A5B2D37454A
:107FDE004F4E4F0003000039003B242000050000E7
:107FEE003A001A43000024003D0033000500000350
:027FFE001A0067
:00000001FF
