:041000000EEF3EF0C1
:107C1C0000EE15F0080EEE6AE806FDE1000EF86EB7
:107C2C00000137EF3EF0800E9B6E700ED36E100E7F
:107C3C00D26E900EB56E010E926E000E896E000E15
:107C4C000F015B6F000EC16E000E986E000E936EEE
:107C5C00000E8A6E000E946E000E8B6E94809288CD
:107C6C00120020EE03F0070EDE6AE806FDE2000EBD
:107C7C00116E000E106E000E0F6E000E146E19ECCD
:107C8C003EF082B04CEF3EF04EEF3EF067EF3EF030
:107C9C00000E126E030E1224D96EDA6A000EDA226E
:107CAC00000EDF6E122A070E12645FEF3EF061EFDA
:107CBC003EF050EF3EF0000E116E000E106E000EF6
:107CCC000F6E80A86CEF3EF06EEF3EF099EF3EF039
:107CDC00FF0E1024F66E7D0E1120F76E030E0F248E
:107CEC00D96EDA6A000EDA220800F5CFDFFF000E3B
:107CFC00136E030E1324D96EDA6A000EDA22DF50EB
:107D0C00016ED8900132D8900132D89001301426EF
:107D1C00132A070E136495EF3EF097EF3EF07FEFBA
:107D2C003EF0A2EF3EF0FF0E1024F66E7D0E1120F9
:107D3C00F76E0800F5CF14F014C001F0013A0F0EE5
:107D4C00011601A0ACEF3EF0AEEF3EF0BBEF3EF003
:107D5C0014C001F0050E026ED8900132022EB2EF63
:107D6C003EF001288A6EBFEF3EF01438E842070B54
:107D7C008A6E000E0B6E000E0C6E000E0D6E000E59
:107D8C000E6E010E0B26000E0C220D220E220E5032
:107D9C000DE1A00E0B5C860E0C58010E0D58D8A0F0
:107DAC00DAEF3EF0DCEF3EF0C7EF3EF0104A112A5E
:107DBC0011BEE8EF3EF0020E115CD8A0E8EF3EF0E9
:107DCC00EAEF3EF0EEEF3EF0000E116E000E106E7C
:107DDC000F2A070E0F64F5EF3EF0F7EF3EF0F9EFC8
:107DEC003EF0000E0F6E000E146E47EF3EF000EFEB
:107DFC0008F0000800152400063800004930001770
:107E0C0015350D080024402B4D4E1053000024193D
:107E1C00004D3F001D004B002400130A6500006656
:107E2C003E1060685E301947691656011C001C062E
:107E3C00072D2924042A0E056C2672325D774F51CA
:107E4C008C38291B29357A67364151676150791F67
:107E5C00667484519E403C819141962C906D52A643
:107E6C0066AD6783749699AFAC5B639D4AB48B9691
:107E7C00578FAF54B97B7AA573B49A93C6BF8886D3
:107E8C009E76636DA4CBA5B18A85616E85D9C2C27D
:107E9C007A93CACFA188C6A871A06B77D99EB685F4
:107EAC00B673EBD7EF97C7F0EDE2C5E0B9DE87CC40
:107EBC009FBE85CAFF9DB691F5ECB19DFBD6FFAD7B
:107ECC0091AFC3939AD1FFC1B3F3AEB2F0AFB7FF8A
:107EDC00B5BAA9B1A7FCFFF7DCBCF1FFE9FFDCFFE9
:107EEC00FFE5DEFFFFFBC7FFFFFFFFFFD5D8ECF17F
:107EFC00BDFFFFD7D7EFFFC2BDCEFFFBD6FFFFFF05
:107F0C00D1C0D2FFFFFFB6E8FDCDBEFFC8EDB8FF74
:107F1C00FFE6FFE0C4D1D7F2E7B6ED9EE6F1DEB6A0
:107F2C00F3A2C4E1A5E1A1E6B9BAFFC8CFF3D3CB64
:107F3C00ECCCC9D3AF9189F8858EBDD0E294D2A296
:107F4C00BCAFB07DC3B999BE868D91AE89D56CDFBF
:107F5C00D3DFB6D19B6867D385A093889891C598D9
:107F6C007954A5648554A0B7A660699CB8BF894FA5
:107F7C004C956D6953A46AA03D93A4467E478941F4
:107F8C008B636C7E973589AB3E2F7476A5555A72F0
:107F9C008E697B9A3B764A94378592914E907D649C
:107FAC006938342A7E8186840D701312202C6B085C
:107FBC004018042700346A2820690F5603753300D3
:107FCC004919514A63006D3E541359345E5A5B2D66
:107FDC0037454F4E4F0003000039003B242000056D
:107FEC0000003A001A43000024003D003300050055
:047FFC0000031A0064
:00000001FF
