:0410000086EF3DF04A
:107B0C0000EE14F0080EEE6AE806FDE1000EF86EC9
:107B1C000001AFEF3DF0800E9B6E700ED36E100E19
:107B2C00D26E900EB56E010E926E000E896E000E26
:107B3C000F015B6F000EC16E000E986E000E936EFF
:107B4C00000E8A6E000E946E000E8B6E94809288DE
:107B5C00120020EE02F0070EDE6AE806FDE2000ECF
:107B6C00106E000E0F6E000E0E6E000E136E91EC6A
:107B7C003DF08250805082B0C6EF3DF0C8EF3DF032
:107B8C00E1EF3DF0000E116E020E1124D96EDA6A8F
:107B9C00000EDA22000EDF6E112A070E1164D9EFE7
:107BAC003DF0DBEF3DF0CAEF3DF0000E106E000E25
:107BBC000F6E000E0E6E80A8E6EF3DF0E8EF3DF084
:107BCC0013EF3EF0FF0E0F24F66E7D0E1020F76EB5
:107BDC00020E0E24D96EDA6A000EDA220800F5CFF6
:107BEC00DFFF000E126E020E1224D96EDA6A000E3E
:107BFC00DA22DF50016ED8900132D8900132D89041
:107C0C0001301326122A070E12640FEF3EF011EF0B
:107C1C003EF0F9EF3DF01CEF3EF0FF0E0F24F66E38
:107C2C007D0E1020F76E0800F5CF13F0100E1360C8
:107C3C0022EF3EF024EF3EF028EF3EF0000E8A6E6D
:107C4C00BFEF3EF00F0E13642EEF3EF030EF3EF020
:107C5C003CEF3EF0300E136036EF3EF038EF3EF066
:107C6C003CEF3EF0010E8A6EBFEF3EF02F0E136418
:107C7C0042EF3EF044EF3EF050EF3EF0500E1360FA
:107C8C004AEF3EF04CEF3EF050EF3EF0030E8A6EA2
:107C9C00BFEF3EF04F0E136456EF3EF058EF3EF040
:107CAC0064EF3EF0700E13605EEF3EF060EF3EF05E
:107CBC0064EF3EF0070E8A6EBFEF3EF06F0E13645A
:107CCC006AEF3EF06CEF3EF078EF3EF0900E1360F2
:107CDC0072EF3EF074EF3EF078EF3EF00F0E8A6ECE
:107CEC00BFEF3EF08F0E13647EEF3EF080EF3EF060
:107CFC008CEF3EF0B00E136086EF3EF088EF3EF056
:107D0C008CEF3EF01F0E8A6EBFEF3EF0AF0E136489
:107D1C0092EF3EF094EF3EF0A0EF3EF0D00E1360E9
:107D2C009AEF3EF09CEF3EF0A0EF3EF03F0E8A6ED5
:107D3C00BFEF3EF0CF0E1364A6EF3EF0A8EF3EF07F
:107D4C00B4EF3EF0F00E1360AEEF3EF0B0EF3EF04D
:107D5C00B4EF3EF07F0E8A6EBFEF3EF0EF0E136471
:107D6C00BAEF3EF0BCEF3EF0BFEF3EF08A68BFEFDB
:107D7C003EF0000E0A6E000E0B6E000E0C6E000E26
:107D8C000D6E010E0A26000E0B220C220D220D5038
:107D9C000DE1A00E0A5C860E0B58010E0C58D8A0F3
:107DAC00DAEF3EF0DCEF3EF0C7EF3EF00F4A102A60
:107DBC0010BEE8EF3EF0020E105CD8A0E8EF3EF0EB
:107DCC00EAEF3EF0EEEF3EF0000E106E000E0F6E7E
:107DDC000E2A070E0E64F5EF3EF0F7EF3EF0F9EFCA
:107DEC003EF0000E0E6E000E136EBFEF3DF000EF76
:107DFC0008F0000800152400063800004930001770
:107E0C0015350D080024402B4D4E1053000024193D
:107E1C00004D3F001D004B002400130A6500006656
:107E2C003E1060685E301947691656011C001C062E
:107E3C00072D2924042A0E056C2672325D774F51CA
:107E4C008C38291B29357A67364151676150791F67
:107E5C00667484519E403C819141962C906D52A643
:107E6C0066AD6783749699AFAC5B639D4AB48B9691
:107E7C00578FAF54B97B7AA573B49A93C6BF8886D3
:107E8C009E76636DA4CBA5B18A85616E85D9C2C27D
:107E9C007A93CACFA188C6A871A06B77D99EB685F4
:107EAC00B673EBD7EF97C7F0EDE2C5E0B9DE87CC40
:107EBC009FBE85CAFF9DB691F5ECB19DFBD6FFAD7B
:107ECC0091AFC3939AD1FFC1B3F3AEB2F0AFB7FF8A
:107EDC00B5BAA9B1A7FCFFF7DCBCF1FFE9FFDCFFE9
:107EEC00FFE5DEFFFFFBC7FFFFFFFFFFD5D8ECF17F
:107EFC00BDFFFFD7D7EFFFC2BDCEFFFBD6FFFFFF05
:107F0C00D1C0D2FFFFFFB6E8FDCDBEFFC8EDB8FF74
:107F1C00FFE6FFE0C4D1D7F2E7B6ED9EE6F1DEB6A0
:107F2C00F3A2C4E1A5E1A1E6B9BAFFC8CFF3D3CB64
:107F3C00ECCCC9D3AF9189F8858EBDD0E294D2A296
:107F4C00BCAFB07DC3B999BE868D91AE89D56CDFBF
:107F5C00D3DFB6D19B6867D385A093889891C598D9
:107F6C007954A5648554A0B7A660699CB8BF894FA5
:107F7C004C956D6953A46AA03D93A4467E478941F4
:107F8C008B636C7E973589AB3E2F7476A5555A72F0
:107F9C008E697B9A3B764A94378592914E907D649C
:107FAC006938342A7E8186840D701312202C6B085C
:107FBC004018042700346A2820690F5603753300D3
:107FCC004919514A63006D3E541359345E5A5B2D66
:107FDC0037454F4E4F0003000039003B242000056D
:107FEC0000003A001A43000024003D003300050055
:047FFC0000031A0064
:00000001FF
