:04100000BBEF3DF015
:107B760000EE20F0100EEE6AE806FDE1000EF86E4B
:107B86000001E4EF3DF0800E9B6E700ED36E100E7A
:107B9600D26E900EB56E010E926E000E896E000EBC
:107BA6000F015B6F000EC16E000E986E000E936E95
:107BB600000E8A6E000E946E000E8B6E9480928874
:107BC600120020EE05F0070EDE6AE806FDE2000E62
:107BD6001C6E000E1B6E000E196E000E1F6EC6EC9C
:107BE6003DF082B0F9EF3DF0FBEF3DF014EF3EF0D3
:107BF600000E1D6E050E1D24D96EDA6A000EDA22FD
:107C0600000EDF6E1D2A070E1D640CEF3EF00EEF10
:107C16003EF0FDEF3DF0000E1C6E000E1B6E000EDA
:107C2600196E80A819EF3EF01BEF3EF046EF3EF0CE
:107C3600FF0E1B24F66E7D0E1C20F76E050E192412
:107C4600D96EDA6A000EDA220800F5CFDFFF000EE1
:107C56001E6E050E1E24D96EDA6A000EDA22DF5079
:107C6600016ED8900132D8900132D89001301F268B
:107C76001E2A070E1E6442EF3EF044EF3EF02CEF44
:107C86003EF04FEF3EF0FF0E1B24F66E7D0E1C20DD
:107C9600F76E0800F5CF1FF020EE0DF0070EDE6A36
:107CA600E806FDE21FC001F0013A0F0E011601A021
:107CB6005FEF3EF061EF3EF06EEF3EF01FC001F069
:107CC600050E026ED8900132022E65EF3EF00128B5
:107CD6001A6E88EF3EF01F38E842070B1A6E88EFDF
:107CE6003EF0FF0E016EFF0E026E1A50036E046A1E
:107CF60001500326025004220D0E0324D96E000EF5
:107D06000420DA6E010EDF6E1A061A50016E026A40
:107D1600FF0E0124FF0E0220800BD8B495EF3EF033
:107D260097EF3EF074EF3EF00DB002D08A9001D08E
:107D36008A800EB002D08A9201D08A820FB002D019
:107D46008A9401D08A8410B002D08A9601D08A869D
:107D560011B002D08A9801D08A8812B002D08A9ACD
:107D660001D08A8A13B002D08A9C01D08A8C14B0C2
:107D760002D08A9E01D08A8E000E156E000E166EF7
:107D8600000E176E000E186E010E1526000E162236
:107D96001722182218500DE1800E155CA90E1658F0
:107DA600030E1758D8A0DAEF3EF0DCEF3EF0C7EF2F
:107DB6003EF01B4A1C2A1CBEE8EF3EF0020E1C5C7D
:107DC600D8A0E8EF3EF0EAEF3EF0EEEF3EF0000E10
:107DD6001C6E000E1B6E192A070E1964F5EF3EF095
:107DE600F7EF3EF0F9EF3EF0000E196E000E1F6E33
:107DF600F4EF3DF000EF08F0000800152400063807
:107E060000004930001715350D080024402B4D4E53
:107E1600105300002419004D3F001D004B002400A4
:107E2600130A650000663E1060685E3019476916E1
:107E360056011C001C06072D2924042A0E056C2653
:107E460072325D774F518C38291B29357A67364156
:107E560051676150791F667484519E403C819141FF
:107E6600962C906D52A666AD6783749699AFAC5BFF
:107E7600639D4AB48B96578FAF54B97B7AA573B47A
:107E86009A93C6BF88869E76636DA4CBA5B18A8574
:107E9600616E85D9C2C27A93CACFA188C6A871A0DD
:107EA6006B77D99EB685B673EBD7EF97C7F0EDE241
:107EB600C5E0B9DE87CC9FBE85CAFF9DB691F5ECBD
:107EC600B19DFBD6FFAD91AFC3939AD1FFC1B3F37A
:107ED600AEB2F0AFB7FFB5BAA9B1A7FCFFF7DCBCED
:107EE600F1FFE9FFDCFFFFE5DEFFFFFBC7FFFFFF5A
:107EF600FFFFD5D8ECF1BDFFFFD7D7EFFFC2BDCE50
:107F0600FFFBD6FFFFFFD1C0D2FFFFFFB6E8FDCDD6
:107F1600BEFFC8EDB8FFFFE6FFE0C4D1D7F2E7B673
:107F2600ED9EE6F1DEB6F3A2C4E1A5E1A1E6B9BA9B
:107F3600FFC8CFF3D3CBECCCC9D3AF9189F8858EEC
:107F4600BDD0E294D2A2BCAFB07DC3B999BE868D36
:107F560091AE89D56CDFD3DFB6D19B6867D385A098
:107F660093889891C5987954A5648554A0B7A6605E
:107F7600699CB8BF894F4C956D6953A46AA03D931F
:107F8600A4467E4789418B636C7E973589AB3E2F2D
:107F96007476A5555A728E697B9A3B764A943785D4
:107FA60092914E907D646938342A7E8186840D7064
:107FB6001312202C6B084018042700346A28206905
:107FC6000F56037533004919514A63006D3E541329
:107FD60059345E5A5B2D37454F4E4F00030000392A
:107FE600003B2420000500003A001A43000024004C
:0A7FF6003D003300050000031A00EF
:00000001FF
